:0B046E004D61747269784B65792100C4
:03048D0001220049
:1003570012044B7BFF7A04796E7D017F011203C182
:10036700E522FB7A00750C037D017F02120402125D
:1003770000038F22E52260F7FB7A00750C037D01ED
:070387007F0212040280E86E
:10041F00EF1FAC0670011E4C600B007D027CC7DC29
:05042F00FEDDFC80EB86
:0104340022A5
:06045F00C2A58F80D2A7A8
:080465007F027EEFDEFEDFFCEA
:01046D00226C
:0A047900C2A612045FC2A7020465C8
:1003E400CFCDCFCECCCE1201CB7C007D0A1201CB77
:0403F400ED2430FFC5
:0A03F800D2A612045FC2A70204653A
:10043500AE07BE0104ED148006BE0209ED243F445B
:0604450080FF1204792281
:10044B007F381204797F0C1204797F061204797FAE
:04045B00010204791D
:0A048300AC03120435AF040203F8C5
:0603C1008B088A09890A7D
:1003C700120435E4FDAB08AA09A90A8D82758300DA
:0C03D70012018CFF60061203F80D80E993
:0103E30022F7
:0C038E007F0AEA24FFFDE434FFFC7E003F
:08039A008E0D8F0E8C0F8D10EB
:1003A2007F017E00E4FBEBC39510E50F6480F874D7
:0E03B2008098500AAC0DAD0E1201B90B80E818
:0103C000221A
:040402008A0A8B0BCC
:10040600120435AA0CEAD39400400D12038EAC0AEE
:08041600AD0B1203E41A80EDA6
:01041E0022BB
:1002AC00120435C3EA64809480400B7F2B1203F850
:1002BC008A168B17800E7F2D1203F8C3E49BF5175B
:1002CC00E49AF516AA15EAD39400400D12038EACED
:0902DC0016AD171203E41A80EDBF
:0102E50022F6
:0402E6008A1A8B1BCA
:1002EA00120435AA1CEAD3940040297F1012039005
:1002FA00AC1AAD1BCFCDCFCECCCE1201CBEF540F63
:10030A00FEC3940AEE5004243080022437FF1203FD
:04031A00F81A80D17C
:01031E0022BC
:04031F008A1F8B2086
:10032300120435AA21EAD394004028EA24FFFDE40D
:1003330034FFFC7F027E0012039AAC1FAD20CFCDA9
:10034300CFCECCCE1201CBEF54012430FF1203F8F1
:030353001A80D23B
:010356002284
:10000300E4F5087590FFC2932097137F1EFE120438
:100013001F3097FD7F1E7E0012041F750801209676
:10002300147F1E7E0012041F3096FD7F1E7E001279
:10003300041F7508052095147F1E7E0012041F30CF
:1000430095FD7F1E7E0012041F7508092094147FFE
:100053001E7E0012041F3094FD7F1E7E0012041FBB
:1000630075080D7590FFC2922097147F1E7E0012B3
:10007300041F3097FD7F1E7E0012041F75080220A7
:1000830096147F1E7E0012041F3096FD7F1E7E0095
:1000930012041F7508062095147F1E7E0012041F8C
:1000A3003095FD7F1E7E0012041F75080A209414EC
:1000B3007F1E7E0012041F3094FD7F1E7E001204FB
:1000C3001F75080E7590FFC2912097147F1E7E0046
:1000D30012041F3097FD7F1E7E0012041F75080354
:1000E3002096147F1E7E0012041F3096FD7F1E7E15
:1000F3000012041F7508072095147F1E7E0012044A
:100103001F3095FD7F1E7E0012041F75080B20947F
:10011300147F1E7E0012041F3094FD7F1E7E00128A
:10012300041F75080F7590FFC2902097147F1E7EE1
:100133000012041F3097FD7F1E7E0012041F7508F6
:10014300042096147F1E7E0012041F3096FD7F1E2E
:100153007E0012041F7508082095147F1E7E00126E
:10016300041F3095FD7F1E7E0012041F75080C20AE
:1001730094147F1E7E0012041F3094FD7F1E7E00A8
:0801830012041F750810AF08FB
:01018B002251
:03000000020220D9
:0C022000787FE4F6D8FD758122020267A9
:10018C00BB010CE58229F582E5833AF583E0225028
:10019C0006E92582F8E622BBFE06E92582F8E22272
:0D01AC00E58229F582E5833AF583E493228C
:1001B900EF8DF0A4A8F0CF8CF0A428CE8DF0A42E5A
:0201C900FE2214
:1001CB00BC000BBE0029EF8DF084FFADF022E4CC18
:1001DB00F875F008EF2FFFEE33FEEC33FCEE9DECE1
:1001EB00984005FCEE9DFE0FD5F0E9E4CEFD22ED27
:1001FB00F8F5F0EE8420D21CFEADF075F008EF2F71
:10020B00FFED33FD4007985006D5F0F222C398FD61
:05021B000FD5F0EA22FE
:10022C00020357E493A3F8E493A34003F68001F28E
:10023C0008DFF48029E493A3F85407240CC8C333D3
:10024C00C4540F4420C8834004F456800146F6DFA2
:10025C00E4800B010204081020408090048DE47EA1
:10026C00019360BCA3FF543F30E509541FFEE49397
:10027C00A360010ECF54C025E060A840B8E493A35E
:10028C00FAE493A3F8E493A3C8C582C8CAC583CA89
:10029C00F0A3C8C582C8CAC583CADFE9DEE780BE41
:01049000006B
:00000001FF
