:1000030000000000000000002424A4AFA834200155
:10001300E2BCA0BFE1010200002121B2ACB2212168
:10002300007E0001FF00042646DA565A575A5E0442
:10003300293EA8AFA83F290B00002C34E4A4A4EC6C
:10004300EDA5A5FE2424000010545676D5DFD47602
:1000530056541000405050F0505F50F0525E400034
:1000630000083000FF003008292A2CF82C3A09092F
:10007300000008083A4A48497F4848CA0A0800006D
:1000830000000000000000FF60100806FF00003FB2
:10009300488888483F0000FF10101010FF00000040
:1000A30081FFFF81000000FF818181423C00003F0E
:0E00B300488888483F00000000000000000060
:1000C100E4F50AF50BF50CF50D1201A5E4F508F5BB
:1000D10009AF09E509250BFDE508350AFC74032D77
:1000E100F58274003CF583E493FD12015F0509E597
:1000F1000970020508C39408E5086480948040D122
:10010100050DE50D7002050CD39408E50C6480948F
:100111008040B9E4F50CF50D050BE50B7002050AFD
:10012100947EE50A6480948040A2E4F50AF50B8090
:010131009B32
:10018300EF1FAC0670011E4C600B007D027CC7DCC8
:05019300FEDDFC80EB25
:010198002244
:0501A500C2B6C2B52244
:02013200AD0717
:10013400E4FB74807E00A803088006CEA2E713CEF9
:1001440013D8F8FFEDF582EF558224FF92B4D2B6AE
:0A015400C2B60BBB08DCD2B5C2B581
:01015E00227E
:10015F00AE05AC07AF06120132AF047480A80708D2
:10016F008002C313D8FCF4F5807F017E0012018357
:04017F007580FF2266
:0300000002019961
:0C019900787FE4F6D8FD75810D0200C1EE
:00000001FF
