:1008BA0020200020202D20202D0020203A20203A20
:0108CA00002D
:0408DA00021F0000F9
:100638001203DAE511FB7A00750C027D017F0112C5
:100648000846E512FB7A00750C027D047F0112084A
:1006580046E513FB7A00750C027D077F01120846F8
:10066800E514FB7A00750C027D017F02120846E54D
:1006780015FB7A00750C027D047F02120846E51608
:0D068800FB7A00750C027D077F0202084618
:10000E00E522B4020B0523E52375F0068485F02363
:10001E00E522640360030200DC74112523F806E573
:10002E0011D394634003E4F511E512D3940C40030D
:10003E00751201E51264016023E5126403601DE58B
:10004E001264056017E51264076011E5126408601A
:10005E000BE512640A6005E512B40C09E513D3949E
:10006E001F404D8048E51264046011E5126406607D
:10007E000BE51264096005E512B40B09E513D39480
:10008E001E402D8028E51264027025E5115403FFF1
:10009E006004E5117009E513D3941D4013800EEF33
:1000AE00600EE511600AE513D3941C40037513012D
:1000BE00E514D394174003E4F514E515D3943B40AF
:1000CE0003E4F515E516D3943B4003E4F516E5225B
:1000DE00640460030201AF74112523F816E511B410
:1000EE00FF03751163E512C39401500375120CE5FD
:1000FE001264016023E5126403601DE5126405605D
:10010E0017E51264076011E5126408600BE51264CE
:10011E000A6005E512B40C0CE513C39401506A7520
:10012E00131F8065E51264046011E5126406600B0E
:10013E00E51264096005E512B40B12E513C39401D0
:10014E004006E513641F704175131E803CE5126472
:10015E00027036E5115403FF6004E5117013E513C8
:10016E00C394014007E513D3941D401D75131D80E4
:10017E0018EF6015E5116011E513C394014007E512
:10018E0013D3941C400375131CE514B4FF037514AC
:10019E0017E515B4FF0375153BE516B4FF03751689
:1001AE003BE5237014E524B4010F7BFF7A0879BA7E
:1001BE007D017F01120805800FE511FB7A00750C99
:1001CE00027D017F01120846E523B40114E524B433
:1001DE00010F7BFF7A0879BA7D047F011208058032
:1001EE000FE512FB7A00750C027D047F01120846A2
:1001FE00E523B40214E524B4010F7BFF7A0879BA23
:10020E007D077F01120805800FE513FB7A00750C40
:10021E00027D077F01120846E523B40314E524B4DA
:10022E00010F7BFF7A0879BA7D017F0212080580E3
:10023E000FE514FB7A00750C027D017F0212084651
:10024E00E523B40414E524B4010F7BFF7A0879BAD0
:10025E007D047F02120805800FE515FB7A00750CF0
:10026E00027D047F02120846E523B40512E524B48C
:10027E00010D7BFF7A0879BA7D077F02020805E53A
:0F028E0016FB7A00750C027D077F0212084622CC
:100695001208A612000312086312029D7BFF7A0856
:1006A50079BD7D017F011208057BFF7A0879C47D3C
:1006B500017F021208051205D78F22E522B4011623
:1006C500E5217007752101F523800BE521B40106AD
:1006D50012029DE4F521E521700512063880D71236
:0406E500000E80D2B1
:03000B000206E901
:0906E900C0E0C0D075D000C007CC
:1006F200758A66758CFC0520E5207002051FC3947F
:10070200BCE51F94024017E521B4010CE5247004F6
:0E0712007F0180027F008F24751F007520007C
:07072000D007D0D0D0E03279
:0908DE000711170513173B37053C
:05000300C2B5C2B622E7
:0305720025F0FD74
:040575008F08A9053D
:10057900D2B5E4FBFAAF0374017E00A80708800531
:10058900C333CE33CED8F9FFEF550824FF92B4D246
:10059900B6C2B60BBB00010AEB64084A70D7E4FB8C
:1005A900FAAF0374017E00A807088005C333CE3370
:1005B900CED8F9FFE9FDEF5D24FF92B4D2B6C2B6F9
:0D05C9000BBB00010AEB64084A70D6C2B5F6
:0105D6002202
:0204F300A90757
:1004F500E4F508430101D2B5FBFAAF0374017E00B0
:10050500A807088005C333CE33CED8F9FFE9FDEF40
:100515005D24FF92B4D2B6C3EB9407EA648094805D
:100525005002C2B60BBB00010AEB64084A70CBE46B
:10053500FFFEC2B6C3EF9407EE648094805002D2EA
:10054500B620B405E4F5098003750901AD07E50991
:10055500A805088002C333D8FC42080FBF00010E6E
:0C056500EF64084E70CCC2B5C2B4AF0801
:010571002267
:10029D00E51175F00A84C454F0FFE51175F00A8478
:1002AD00EF7F8C120572E51275F00A84C454F0FFCD
:1002BD00E51275F00A84EF7F88120572E51375F06B
:1002CD000A84C454F0FFE51375F00A84EF25F0FDA0
:1002DD007F86120575E51475F00A84C454F0FFE5A8
:1002ED001475F00A84EF25F0FD7F84120575E51570
:1002FD0075F00A84C454F0FFE51575F00A84EF25F6
:10030D00F0FD7F82120575E51675F00A84C454F070
:10031D00FFE51675F00A84EF25F0FD7F8012057557
:10032D00E51775F00A84C454F0FFE51775F00A84DB
:09033D00EF25F0FD7F8A02057531
:1003DA007F8C1204F3EFC4540F75F00AA4FEEF5495
:1003EA000F2EF5117F881204F3EFC4540F75F00A2B
:1003FA00A4FEEF540F2EF5127F861204F3EFC454B5
:10040A000F75F00AA4FEEF540F2EF5137F84120421
:10041A00F3EFC4540F75F00AA4FEEF540F2EF5142F
:10042A007F821204F3EFC4540F75F00AA4FEEF544E
:10043A000F2EF5157F801204F3EFC4540F75F00ADE
:10044A00A4FEEF540F2EF5167F8A1204F3EFC4545C
:0C045A000F75F00AA4FEEF540F2EF517EA
:010466002273
:0608CB00C2A58F80D2A738
:0808D1007F027EEFDEFEDFFC7A
:0108D90022FC
:0A08E800C2A61208CBC2A70208D175
:10082800CFCDCFCECCCE1203857C007D0A120385B6
:04083800ED2430FF7C
:0A083C00D2A61208CBC2A70208D111
:10087A00AE07BE0104ED148006BE0209ED243F4412
:06088A0080FF1208E822C5
:1008A6007F381208E87F0C1208E87F061208E87FF6
:0408B600010208E84B
:0A08F200AC0312087AAF0402083CC0
:060805008B088A09890A34
:10080B0012087AE4FDAB08AA09A90A8D8275830048
:0C081B00120346FF600612083C0D80E945
:0108270022AE
:0C07D2007F0AEA24FFFDE434FFFC7E00F7
:0807DE008E0D8F0E8C0F8D10A3
:1007E6007F017E00E4FBEBC39510E50F6480F8748F
:0E07F6008098500AAC0DAD0E1203730B80E814
:0108040022D1
:040846008A0A8B0B84
:10084A0012087AAA0CEAD39400400D1207D2AC0A15
:08085A00AD0B1208281A80ED15
:010862002273
:1007270012087AC3EA64809480400B7F2B12083C3E
:100737008A1D8B1E800E7F2D12083CC3E49BF51E7D
:10074700E49AF51DAA1CEAD39400400D1207D2AC17
:090757001DAD1E1208281A80EDE8
:010760002276
:040761008A278B2830
:1007650012087AAA29EAD3940040297F101207D4E7
:10077500AC27AD28CFCDCFCECCCE120385EF540F0D
:10078500FEC3940AEE5004243080022437FF120879
:040795003C1A80D1B9
:01079900223D
:04079A008A2C8B2DED
:10079E0012087AAA2EEAD394004028EA24FFFDE438
:1007AE0034FFFC7F027E001207DEAC2CAD2DCFCDC8
:1007BE00CFCECCCE120385EF54012430FF12083C6D
:0307CE001A80D2BC
:0107D1002205
:1005D700E4F50820B1137F1EFE12089030B1FD7FAD
:1005E7001E7E0012089075080120B0147F1E7E0041
:1005F70012089030B0FD7F1E7E0012089075080229
:1006070020B2147F1E7E0012089030B2FD7F1E7E3E
:100617000012089075080320B3147F1E7E0012088D
:100627009030B3FD7F1E7E00120890750804AF0856
:0106370022A0
:10086300D2A9D2AFC2B95389F0438901758A66759B
:070873008CFCC28DD28C2227
:10089000EF1FAC0670011E4C600B007D027CC7DCB4
:0508A000FEDDFC80EB11
:0108A5002230
:0300000002046790
:0C046700787FE4F6D8FD75812E0204AE0B
:10034600BB010CE58229F582E5833AF583E022506C
:1003560006E92582F8E622BBFE06E92582F8E222B6
:0D036600E58229F582E5833AF583E49322D0
:10037300EF8DF0A4A8F0CF8CF0A428CE8DF0A42E9E
:02038300FE2258
:10038500BC000BBE0029EF8DF084FFADF022E4CC5C
:10039500F875F008EF2FFFEE33FEEC33FCEE9DEC25
:1003A500984005FCEE9DFE0FD5F0E9E4CEFD22ED6B
:1003B500F8F5F0EE8420D21CFEADF075F008EF2FB5
:1003C500FFED33FD4007985006D5F0F222C398FDA6
:0503D5000FD5F0EA2243
:10047300020695E493A3F8E493A34003F68001F204
:1004830008DFF48029E493A3F85407240CC8C3338A
:10049300C4540F4420C8834004F456800146F6DF59
:1004A300E4800B01020408102040809008DAE47E07
:1004B300019360BCA3FF543F30E509541FFEE4934E
:1004C300A360010ECF54C025E060A840B8E493A315
:1004D300FAE493A3F8E493A3C8C582C8CAC583CA40
:1004E300F0A3C8C582C8CAC583CADFE9DEE780BEF8
:0108E7000010
:00000001FF
