:0300F20001080101
:0400D8007F1E7E0009
:1000DC00EF1FAC0670011E4C600B007D027CC7DC70
:0500EC00FEDDFC80EBCD
:0100F10022EC
:10008F00E508F4F5A020B11E1200D830B1FD120022
:10009F00D8E508B480057508018006E50825E0F568
:1000AF0008E508F4F5A020B0DC1200D830B0FD123E
:1000BF0000D8E508B401057508808006E508C3136C
:0900CF00F508E508F4F5A080BC79
:03000000020003F8
:0C000300787FE4F6D8FD75810802004A01
:10000F0002008FE493A3F8E493A34003F68001F278
:10001F0008DFF48029E493A3F85407240CC8C333F2
:10002F00C4540F4420C8834004F456800146F6DFC1
:10003F00E4800B01020408102040809000F2E47E5F
:10004F00019360BCA3FF543F30E509541FFEE493B6
:10005F00A360010ECF54C025E060A840B8E493A37D
:10006F00FAE493A3F8E493A3C8C582C8CAC583CAA8
:10007F00F0A3C8C582C8CAC583CADFE9DEE780BE60
:0100F500000A
:00000001FF
