:10014200750800750902120235750E03AB09AA087B
:100152007D017F011201EC0509E509700205087FA6
:10016200E87E0312021F750E03AB09AA087D017F08
:06017200011201EC80E126
:06024900C2A58F80D2A7C0
:08024F007F027EEFDEFEDFFC02
:010257002284
:0A026400C2A6120249C2A702024F0F
:1001CE00CFCDCFCECCCE1200427C007D0A120042A3
:0401DE00ED2430FFDD
:0A01E200D2A6120249C2A702024F82
:10020900AE07BE0104ED148006BE0209ED243F4489
:0602190080FF12026422C6
:100235007F381202647F0C1202647F061202647F0B
:04024500010202644C
:0A026E00AC03120209AF040201E222
:0601AB008B248A25892641
:1001B100120209E4FDAB24AA25A9268D82758300CC
:0C01C100120003FF60061201E20D80E94D
:0101CD00220F
:0C0178007F0AEA24FFFDE434FFFC7E0057
:080184008E0F8F108C118D12FB
:10018C007F017E00E4FBEBC39512E5116480F874EB
:0E019C008098500AAC0FAD101200300B80E8B6
:0101AA002232
:0401EC008A0C8B0DE1
:1001F000120209AA0EEAD39400400D120178AC0C49
:08020000AD0D1201CE1A80EDD4
:0102080022D3
:10009700120209C3EA64809480400B7F2B1201E2AD
:1000A7008A188B19800E7F2D1201E2C3E49BF51984
:1000B700E49AF518AA17EAD39400400D120178AC18
:0900C70018AD191201CE1A80EDEA
:0100D000220D
:0400D1008A1C8B1DDD
:1000D500120209AA1EEAD3940040297F1012017A60
:1000E500AC1CAD1DCFCDCFCECCCE120042EF540F00
:1000F500FEC3940AEE5004243080022437FF120117
:04010500E21A80D1A9
:0101090022D3
:04010A008A218B2299
:10010E00120209AA23EAD394004028EA24FFFDE450
:10011E0034FFFC7F027E00120184AC21AD22CFCDD4
:10012E00CFCECCCE120042EF54012430FF1201E2AA
:03013E001A80D252
:01014100229B
:10021F00EF1FAC0670011E4C600B007D027CC7DC2B
:05022F00FEDDFC80EB88
:0102340022A7
:03000000020258A1
:0C025800787FE4F6D8FD75812602014293
:10000300BB010CE58229F582E5833AF583E02250B2
:1000130006E92582F8E622BBFE06E92582F8E222FC
:0D002300E58229F582E5833AF583E4932216
:10003000EF8DF0A4A8F0CF8CF0A428CE8DF0A42EE4
:02004000FE229E
:10004200BC000BBE0029EF8DF084FFADF022E4CCA2
:10005200F875F008EF2FFFEE33FEEC33FCEE9DEC6B
:10006200984005FCEE9DFE0FD5F0E9E4CEFD22EDB1
:10007200F8F5F0EE8420D21CFEADF075F008EF2FFB
:10008200FFED33FD4007985006D5F0F222C398FDEC
:050092000FD5F0EA2289
:00000001FF
