:0300F30001080001
:10008F001200BE7F111200EBAF081200EB05087FC4
:08009F00E87E031200D580F099
:1000D500EF1FAC0670011E4C600B007D027CC7DC77
:0500E500FEDDFC80EBD4
:0100EA0022F3
:1000A700D2A9D2AFC2B95389F0438901758A66755F
:0700B7008CFCC28DD28C22EB
:1000BE0075984043878053890F438920758BF4755B
:0700CE008DF4D28EC2AB22BB
:0800EB008F993099FDC29922A2
:03000000020003F8
:0C000300787FE4F6D8FD75810802004A01
:10000F0002008FE493A3F8E493A34003F68001F278
:10001F0008DFF48029E493A3F85407240CC8C333F2
:10002F00C4540F4420C8834004F456800146F6DFC1
:10003F00E4800B01020408102040809000F3E47E5E
:10004F00019360BCA3FF543F30E509541FFEE493B6
:10005F00A360010ECF54C025E060A840B8E493A37D
:10006F00FAE493A3F8E493A3C8C582C8CAC583CAA8
:10007F00F0A3C8C582C8CAC583CADFE9DEE780BE60
:0100F6000009
:00000001FF
