:0C04EE00524543453A0053454E443A0045
:03051600012000C1
:100413001204841204CB7BFF7A0479EE7D017F0101
:100423001204447BFF7A0479F47D017F02120444B1
:100433001200268F20E52060F712050EE4F52080D8
:01044300EFC9
:030023000202CF07
:1002CF00C0E0C0F0C083C082C0D075D000C000C0F5
:1002DF0001C002C003C004C005C006C00730991199
:1002EF00E520FB7A00750C027D067F021204678001
:1002FF001A309817AF99EFFB7A00750C027D067FC5
:10030F000112036FAF9912050EC298D007D006D015
:10031F0005D004D003D002D001D000D0D0D082D0ED
:06032F0083D0F0D0E032A3
:10049F00EF1FAC0670011E4C600B007D027CC7DCA9
:0504AF00FEDDFC80EB06
:0104B4002225
:1004840075985043878053890F438920758BF47581
:0B0494008DF4D28EC2ABD2AFD2AC22EE
:08050E008F993099FDC299227A
:0604DF00C2A58F80D2A728
:0804E5007F027EEFDEFEDFFC6A
:0104ED0022EC
:0A04FA00C2A61204DFC2A70204E547
:10000300CFCDCFCECCCE1201EE7C007D0A1201EE15
:04001300ED2430FFA9
:0A001700D2A61204DFC2A70204E51E
:1004B500AE07BE0104ED148006BE0209ED243F44DB
:0604C50080FF1204FA2280
:1004CB007F381204FA7F0C1204FA7F061204FA7FAB
:0404DB00010204FA1C
:0A050400AC031204B5AF04020017A7
:060444008B118A128913DE
:10044A001204B5E4FDAB11AA12A9138D82758300BB
:0C045A001201AFFF60061200170D80E9D0
:010466002273
:0C03E0007F0AEA24FFFDE434FFFC7E00ED
:0803EC008E0D8F0E8C0F8D1099
:1003F4007F017E00E4FBEBC39510E50F6480F87485
:0E0404008098500AAC0DAD0E1201DC0B80E8A2
:0104120022C7
:040467008A0A8B0B67
:10046B001204B5AA0CEAD39400400D1203E0AC0AB7
:08047B00AD0B1200031A80ED25
:010483002256
:100335001204B5C3EA64809480400B7F2B1200172A
:100345008A198B1A800E7F2D120017C3E49BF51AAC
:10035500E49AF519AA18EAD39400400D1203E0AC0B
:0903650019AD1A1200031A80ED13
:01036E00226C
:04036F008A0A8B0B60
:100373001204B5AA0CEAD3940040297F101203E2B9
:10038300AC0AAD0BCFCDCFCECCCE1201EEEF540FD6
:10039300FEC3940AEE5004243080022437FF120077
:0403A300171A80D1D4
:0103A7002233
:0403A8008A1D8B1E01
:1003AC001204B5AA1FEAD394004028EA24FFFDE406
:1003BC0034FFFC7F027E001203ECAC1DAD1ECFCDD2
:1003CC00CFCECCCE1201EEEF54012430FF12001729
:0303DC001A80D2B2
:0103DF0022FB
:10002600E4F5117590FFC2932097137F1EFE12040C
:100036009F3097FD7F1E7E0012049F75110120964A
:10004600147F1E7E0012049F3096FD7F1E7E0012D6
:10005600049F7511052095147F1E7E0012049F30A3
:1000660095FD7F1E7E0012049F7511092094147F52
:100076001E7E0012049F3094FD7F1E7E0012049F98
:1000860075110D7590FFC2922097147F1E7E001287
:10009600049F3097FD7F1E7E0012049F751102207B
:1000A60096147F1E7E0012049F3096FD7F1E7E00F2
:1000B60012049F7511062095147F1E7E0012049F60
:1000C6003095FD7F1E7E0012049F75110A20941440
:1000D6007F1E7E0012049F3094FD7F1E7E00120458
:1000E6009F75110E7590FFC2912097147F1E7E009A
:1000F60012049F3097FD7F1E7E0012049F75110328
:100106002096147F1E7E0012049F3096FD7F1E7E71
:100116000012049F7511072095147F1E7E0012049D
:100126009F3095FD7F1E7E0012049F75110B209453
:10013600147F1E7E0012049F3094FD7F1E7E0012E7
:10014600049F75110F7590FFC2902097147F1E7E35
:100156000012049F3097FD7F1E7E0012049F7511CA
:10016600042096147F1E7E0012049F3096FD7F1E8B
:100176007E0012049F7511082095147F1E7E0012C2
:10018600049F3095FD7F1E7E0012049F75110C2082
:1001960094147F1E7E0012049F3094FD7F1E7E0005
:0801A60012049F751110AF1146
:0101AE00222E
:03000000020243B6
:0C024300787FE4F6D8FD75812002028A65
:1001AF00BB010CE58229F582E5833AF583E0225005
:1001BF0006E92582F8E622BBFE06E92582F8E2224F
:0D01CF00E58229F582E5833AF583E4932269
:1001DC00EF8DF0A4A8F0CF8CF0A428CE8DF0A42E37
:0201EC00FE22F1
:1001EE00BC000BBE0029EF8DF084FFADF022E4CCF5
:1001FE00F875F008EF2FFFEE33FEEC33FCEE9DECBE
:10020E00984005FCEE9DFE0FD5F0E9E4CEFD22ED03
:10021E00F8F5F0EE8420D21CFEADF075F008EF2F4D
:10022E00FFED33FD4007985006D5F0F222C398FD3E
:05023E000FD5F0EA22DB
:10024F00020413E493A3F8E493A34003F68001F2AE
:10025F0008DFF48029E493A3F85407240CC8C333B0
:10026F00C4540F4420C8834004F456800146F6DF7F
:10027F00E4800B0102040810204080900516E47EF4
:10028F00019360BCA3FF543F30E509541FFEE49374
:10029F00A360010ECF54C025E060A840B8E493A33B
:1002AF00FAE493A3F8E493A3C8C582C8CAC583CA66
:1002BF00F0A3C8C582C8CAC583CADFE9DEE780BE1E
:0105190000E1
:00000001FF
