:0402F60002250000DD
:10029200D2A9D2AFC2B95389F0438901758A667572
:0702A2008CFCC28DD28C22FE
:0500030012029280FED4
:03000B0002020CE2
:10020C00C0E0C0D0758A66758CFC0526E5267002A8
:10021C000525C394E8E5259403400875250075264B
:08022C0000B2A0D0D0D0E032F6
:0602D300C2A58F80D2A736
:0802D9007F027EEFDEFEDFFC78
:0102E10022FA
:0A02E200C2A61202D3C2A70202D97D
:10025700CFCDCFCECCCE12004D7C007D0A12004D03
:04026700ED2430FF53
:0A026B00D2A61202D3C2A70202D9E4
:1002A900AE07BE0104ED148006BE0209ED243F44E9
:0602B90080FF1202E222A8
:1002BF007F381202E27F0C1202E27F061202E27F07
:0402CF00010202E244
:0A02EC00AC031202A9AF0402026B7A
:060234008B228A238924BD
:10023A001202A9E4FDAB22AA23A9248D82758300A8
:0C024A0012000EFF600612026B0D80E92E
:010256002285
:0C01D9007F0AEA24FFFDE434FFFC7E00F6
:0801E5008E1E8F1F8C208D215E
:1001ED007F017E00E4FBEBC39521E5206480F8746C
:0E01FD008098500AAC1EAD1F12003B0B80E82C
:01020B0022D0
:040275008A118B124D
:100279001202A9AA13EAD39400400D1201D9AC11B4
:08028900AD121202571A80EDBC
:01029100224A
:10012E001202A9C3EA64809480400B7F2B12026BEB
:10013E008A0D8B0E800E7F2D12026BC3E49BF50E83
:10014E00E49AF50DAA0CEAD39400400D1201D9AC35
:09015E000DAD0E1202571A80EDDE
:010167002275
:040168008A168B1751
:10016C001202A9AA18EAD3940040297F101201DBCD
:10017C00AC16AD17CFCDCFCECCCE12004DEF540F69
:10018C00FEC3940AEE5004243080022437FF12027E
:04019C006B1A80D189
:0101A000223C
:0401A1008A1B8B1C0E
:1001A5001202A9AA1DEAD394004028EA24FFFDE41F
:1001B50034FFFC7F027E001201E5AC1BAD1CCFCDE8
:1001C500CFCECCCE12004DEF54012430FF12026B7E
:0301D5001A80D2BB
:0101D8002204
:030000000200A259
:0C00A200787FE4F6D8FD7581260200E9A5
:10000E00BB010CE58229F582E5833AF583E02250A7
:10001E0006E92582F8E622BBFE06E92582F8E222F1
:0D002E00E58229F582E5833AF583E493220B
:10003B00EF8DF0A4A8F0CF8CF0A428CE8DF0A42ED9
:02004B00FE2293
:10004D00BC000BBE0029EF8DF084FFADF022E4CC97
:10005D00F875F008EF2FFFEE33FEEC33FCEE9DEC60
:10006D00984005FCEE9DFE0FD5F0E9E4CEFD22EDA6
:10007D00F8F5F0EE8420D21CFEADF075F008EF2FF0
:10008D00FFED33FD4007985006D5F0F222C398FDE1
:05009D000FD5F0EA227E
:1000AE00020003E493A3F8E493A34003F68001F265
:1000BE0008DFF48029E493A3F85407240CC8C33353
:1000CE00C4540F4420C8834004F456800146F6DF22
:1000DE00E4800B01020408102040809002F6E47EBA
:1000EE00019360BCA3FF543F30E509541FFEE49317
:1000FE00A360010ECF54C025E060A840B8E493A3DE
:10010E00FAE493A3F8E493A3C8C582C8CAC583CA08
:10011E00F0A3C8C582C8CAC583CADFE9DEE780BEC0
:0102FA000003
:00000001FF
