:1006320050617373576F72643A00202020004F4B51
:0A06420021004552520078787878C4
:10000300E4F509F50A780B7C00FD7BFF7A06794855
:10001300FE7F041202B3750F0075100075110B12E9
:1000230006787BFF7A0679327D017F011205D4AB16
:100033000FAA10A9117D017F021205D412036D8F3F
:1000430008E50860F7D3940A40030200E7E508B423
:100053000A057508308058E508B401057508318034
:100063004EE508B402057508328044E508B403057B
:10007300750833803AE508B404057508348030E523
:1000830008B405057508358026E508B40605750826
:1000930036801CE508B407057508378012E508B4F7
:1000A30008057508388008E508B40903750839C3DD
:1000B300E50A9404E509940050827BFF7A06793CB3
:1000C3007D0E7F011205D4E50A04FDAB087F021201
:1000D30006B1740B250AF8A608050AE50A7002059D
:1000E3000902003FE508640B6003020177AB0FAA26
:1000F30010A9117D017F021205D4E50B6431703B19
:10010300E50C64317035E50D6431702FE50E643113
:1001130070297BFF7A0679407D0E7F011205D4E4B6
:10012300F512F513740B2513F876780513E51370A0
:100133000205126404451270EB80277BFF7A06796F
:10014300447D0E7F011205D4E4F512F513740B25DB
:1001530013F876780513E51370020512640445124B
:1001630070EBE4F509F50AAB0FAA10A9117D017F25
:10017300021205D4E508B40C22E50A4509601C7493
:100183000A250AF87678AB0FAA10A9117D017F0220
:100193001205D4E50A150A70021509E50864106012
:1001A3000302003F7BFF7A06793C7D0E7F01120537
:1001B300D4E4F512F513740B2513F876780513E5DB
:1001C30013700205126404451270EBE4F509F50A95
:1001D300AB0FAA10A9117D017F021205D402003FC3
:10064C00EF1FAC0670011E4C600B007D027CC7DCFA
:05065C00FEDDFC80EB57
:010661002276
:06068C00C2A58F80D2A779
:080692007F027EEFDEFEDFFCBB
:01069A00223D
:0A06A700C2A612068CC2A70206923A
:1005F700CFCDCFCECCCE1203187C007D0A120318C4
:04060700ED2430FFAF
:0A060B00D2A612068CC2A7020692C6
:10066200AE07BE0104ED148006BE0209ED243F442C
:0606720080FF1206A72222
:100678007F381206A77F0C1206A77F061206A77FEF
:04068800010206A7BE
:0A06B100AC03120662AF0402060B50
:0605D4008B148A15891644
:1005DA00120662E4FDAB14AA15A9168D8275830072
:0C05EA001202D9FF600612060B0D80E91A
:0105F60022E2
:0C05A1007F0AEA24FFFDE434FFFC7E002A
:0805AD008E2D8F2E8C2F8D3056
:1005B5007F017E00E4FBEBC39530E52F6480F87482
:0E05C5008098500AAC2DAD2E1203060B80E874
:0105D3002205
:040615008A208B218B
:10061900120662AA22EAD39400400D1205A1AC2069
:08062900AD211205F71A80ED66
:0106310022A6
:1004F600120662C3EA64809480400B7F2B12060BBF
:100506008A1C8B1D800E7F2D12060BC3E49BF51DE6
:10051600E49AF51CAA1BEAD39400400D1205A1AC7F
:090526001CAD1D1205F71A80ED51
:01052F0022A9
:040530008A258B2667
:10053400120662AA27EAD3940040297F101205A369
:10054400AC25AD26CFCDCFCECCCE120318EF540FB1
:10055400FEC3940AEE5004243080022437FF1206AE
:040564000B1A80D11D
:010568002270
:040569008A2A8B2B24
:10056D00120662AA2CEAD394004028EA24FFFDE487
:10057D0034FFFC7F027E001205ADAC2AAD2BCFCD32
:10058D00CFCECCCE120318EF54012430FF12060B40
:03059D001A80D2EF
:0105A0002238
:10036D00E4F5147590FFC2932097137F1EFE1206BD
:10037D004C3097FD7F1E7E0012064C7514012096A1
:10038D00147F1E7E0012064C3096FD7F1E7E0012DD
:10039D00064C7514052095147F1E7E0012064C30F8
:1003AD0095FD7F1E7E0012064C7514092094147F56
:1003BD001E7E0012064C3094FD7F1E7E0012064CF0
:1003CD0075140D7590FFC2922097147F1E7E00123A
:1003DD00064C3097FD7F1E7E0012064C75140220D0
:1003ED0096147F1E7E0012064C3096FD7F1E7E00F9
:1003FD0012064C7514062095147F1E7E0012064CB5
:10040D003095FD7F1E7E0012064C75140A20941443
:10041D007F1E7E0012064C3094FD7F1E7E0012065C
:10042D004C75140E7590FFC2912097147F1E7E009F
:10043D0012064C3097FD7F1E7E0012064C7514037C
:10044D002096147F1E7E0012064C3096FD7F1E7E78
:10045D000012064C7514072095147F1E7E0012069F
:10046D004C3095FD7F1E7E0012064C75140B2094AA
:10047D00147F1E7E0012064C3094FD7F1E7E0012EE
:10048D00064C75140F7590FFC2902097147F1E7E39
:10049D000012064C3097FD7F1E7E0012064C75141F
:1004AD00042096147F1E7E0012064C3096FD7F1E92
:1004BD007E0012064C7514082095147F1E7E0012C6
:1004CD00064C3095FD7F1E7E0012064C75140C20D7
:1004DD0094147F1E7E0012064C3094FD7F1E7E000C
:0804ED0012064C751410AF1447
:0104F50022E4
:0300000002069B5A
:0C069B00787FE4F6D8FD75813002000382
:1001E300E709F608DFFA8046E709F208DFFA803EFE
:1001F30088828C83E709F0A3DFFA8032E309F608EB
:10020300DFFA8078E309F208DFFA807088828C8352
:10021300E309F0A3DFFA806489828A83E0A3F60806
:10022300DFFA805889828A83E0A3F208DFFA804CE0
:1002330080D280FA80C680D4806980F280338010B7
:1002430080A680EA809A80A880DA80E280CA803320
:1002530089828A83ECFAE493A3C8C582C8CCC58398
:10026300CCF0A3C8C582C8CCC583CCDFE9DEE78068
:100273000D89828A83E493A3F608DFF9ECFAA9F0E7
:10028300EDFB2289828A83ECFAE0A3C8C582C8CC3D
:10029300C583CCF0A3C8C582C8CCC583CCDFEADE56
:1002A300E880DB89828A83E493A3F208DFF980CCB8
:1002B30088F0EF60010E4E60C388F0ED2402B404B1
:1002C3000050B9F582EB2402B4040050AF23234558
:0602D30082239002337348
:1002D900BB010CE58229F582E5833AF583E02250DA
:1002E90006E92582F8E622BBFE06E92582F8E22224
:0D02F900E58229F582E5833AF583E493223E
:10030600EF8DF0A4A8F0CF8CF0A428CE8DF0A42E0B
:02031600FE22C5
:10031800BC000BBE0029EF8DF084FFADF022E4CCC9
:10032800F875F008EF2FFFEE33FEEC33FCEE9DEC92
:10033800984005FCEE9DFE0FD5F0E9E4CEFD22EDD8
:10034800F8F5F0EE8420D21CFEADF075F008EF2F22
:10035800FFED33FD4007985006D5F0F222C398FD13
:050368000FD5F0EA22B0
:00000001FF
