:0905A000636C6F636B3A003A00D2
:04000300021C0000DB
:1002B700E4F508F509F50AF50B1205261205697B21
:1002C700FF7A0579A07D017F011204C8E51FFB7A3B
:1002D700007510027D017F021205097BFF7A0579FF
:1002E700A77D037F021204C8E520FB7A0075100280
:1002F7007D047F021205097BFF7A0579A77D067FBA
:10030700021204C8E51EFB7A007510027D077F0202
:1003170012050912000E8F21E521640F6005E52102
:10032700B410A9E521B40F02C28CE521B4109DD207
:030337008C80991E
:03000B0002039B52
:04039B00C0E0C0D02E
:10039F00758A66758CFC051DE51D7002051CC394DE
:1003AF00E8E51C9403402F751C00751D00051EE524
:1003BF001E943C4005751E000520E520C3943C406B
:1003CF0005752000051FE51FC394184009751F0010
:0603DF00751E00752000F0
:0503E500D0D0D0E03291
:10053D00EF1FAC0670011E4C600B007D027CC7DC0A
:05054D00FEDDFC80EB67
:010552002286
:10033A00E4F52C20B1137F1EFE12053D30B1FD7F7E
:10034A001E7E0012053D752C0120B0147F1E7E0012
:10035A0012053D30B0FD7F1E7E0012053D752C0250
:10036A0020B2147F1E7E0012053D30B2FD7F1E7E34
:10037A000012053D752C0320B3147F1E7E00120562
:10038A003D30B3FD7F1E7E0012053D752C04AF2C57
:01039A002240
:06057D00C2A58F80D2A789
:080583007F027EEFDEFEDFFCCB
:01058B00224D
:0A058C00C2A612057DC2A702058376
:1004EB00CFCDCFCECCCE1201D67C007D0A1201D659
:0404FB00ED2430FFBD
:0A04FF00D2A612057DC2A7020583F4
:10055300AE07BE0104ED148006BE0209ED243F443C
:0605630080FF12058C224E
:100569007F3812058C7F0C12058C7F0612058C7F53
:040579000102058CEA
:0A059600AC03120553AF040204FF8A
:0604C8008B0C8A0D890E69
:1004CE00120553E4FDAB0CAA0DA90E8D82758300A7
:0C04DE00120197FF60061204FF0D80E978
:0104EA0022EF
:0C0495007F0AEA24FFFDE434FFFC7E0037
:0804A1008E118F128C138D14D3
:1004A9007F017E00E4FBEBC39514E5136480F874C7
:0E04B9008098500AAC11AD121201C40B80E8FD
:0104C7002212
:040509008A0E8B0FBC
:10050D00120553AA10EAD39400400D120495AC0EB7
:08051D00AD0F1204EB1A80ED92
:0105250022B3
:1003EA00120553C3EA64809480400B7F2B1204FFEA
:1003FA008A1A8B1B800E7F2D1204FFC3E49BF51B08
:10040A00E49AF51AAA19EAD39400400D120495AC9D
:09041A001AAD1B1204EB1A80ED6F
:0104230022B6
:040424008A248B2576
:10042800120553AA26EAD3940040297F1012049794
:10043800AC24AD25CFCDCFCECCCE1201D6EF540F04
:10044800FEC3940AEE5004243080022437FF1204BD
:04045800FF1A80D136
:01045C00227D
:04045D008A298B2A33
:10046100120553AA2BEAD394004028EA24FFFDE4A5
:1004710034FFFC7F027E001204A1AC29AD2ACFCD4E
:10048100CFCECCCE1201D6EF54012430FF1204FF9F
:030491001A80D2FC
:010494002245
:10052600D2A9D2AFC2B95389F0438901758A6675DB
:070536008CFCC28DD28C2267
:10000E00E4F50C7590FFC2932097137F1EFE120528
:10001E003D3097FD7F1E7E0012053D750C0120962A
:10002E00147F1E7E0012053D3096FD7F1E7E00124F
:10003E00053D750C052095147F1E7E0012053D3082
:10004E0095FD7F1E7E0012053D750C092094147FD0
:10005E001E7E0012053D3094FD7F1E7E0012053D72
:10006E00750C0D7590FFC2922097147F1E7E0012A4
:10007E00053D3097FD7F1E7E0012053D750C02205A
:10008E0096147F1E7E0012053D3096FD7F1E7E006B
:10009E0012053D750C062095147F1E7E0012053D3F
:1000AE003095FD7F1E7E0012053D750C0A209414BE
:1000BE007F1E7E0012053D3094FD7F1E7E001205D0
:1000CE003D750C0E7590FFC2912097147F1E7E0019
:1000DE0012053D3097FD7F1E7E0012053D750C0307
:1000EE002096147F1E7E0012053D3096FD7F1E7EEB
:1000FE000012053D750C072095147F1E7E0012051B
:10010E003D3095FD7F1E7E0012053D750C0B209433
:10011E00147F1E7E0012053D3094FD7F1E7E001260
:10012E00053D750C0F7590FFC2902097147F1E7EB3
:10013E000012053D3097FD7F1E7E0012053D750CA9
:10014E00042096147F1E7E0012053D3096FD7F1E04
:10015E007E0012053D750C082095147F1E7E001240
:10016E00053D3095FD7F1E7E0012053D750C0C2061
:10017E0094147F1E7E0012053D3094FD7F1E7E007E
:08018E0012053D750C10AF0CC9
:010196002246
:0300000002022BCE
:0C022B00787FE4F6D8FD75812C02027289
:10019700BB010CE58229F582E5833AF583E022501D
:1001A70006E92582F8E622BBFE06E92582F8E22267
:0D01B700E58229F582E5833AF583E4932281
:1001C400EF8DF0A4A8F0CF8CF0A428CE8DF0A42E4F
:0201D400FE2209
:1001D600BC000BBE0029EF8DF084FFADF022E4CC0D
:1001E600F875F008EF2FFFEE33FEEC33FCEE9DECD6
:1001F600984005FCEE9DFE0FD5F0E9E4CEFD22ED1C
:10020600F8F5F0EE8420D21CFEADF075F008EF2F65
:10021600FFED33FD4007985006D5F0F222C398FD56
:050226000FD5F0EA22F3
:100237000202B7E493A3F8E493A34003F68001F224
:1002470008DFF48029E493A3F85407240CC8C333C8
:10025700C4540F4420C8834004F456800146F6DF97
:10026700E4800B0102040810204080900003E47E24
:10027700019360BCA3FF543F30E509541FFEE4938C
:10028700A360010ECF54C025E060A840B8E493A353
:10029700FAE493A3F8E493A3C8C582C8CAC583CA7E
:1002A700F0A3C8C582C8CAC583CADFE9DEE780BE36
:0100070000F8
:00000001FF
