:0400030002220000D5
:1002C300E4F52875A0FE12034412012E8F28E528B9
:1002D30060F7B401F40524E524C3940240EBE4F58C
:0302E3002480E68E
:03000B0002018F60
:0B018F00C0E0C0D075D000C000C00769
:10019A00758A66758CFC0523E52370020522C394D3
:1001AA00F4E5229401402B752200752300E52470A2
:1001BA000FAFA07801EF08800123D8FDF5A08012C7
:1001CA00E524B4010DAFA07801EF08800103D8FD42
:0201DA00F5A08E
:0901DC00D007D000D0D0D0E032F1
:10034400D2A9D2AFC2B95389F0438901758A6675BF
:070354008CFCC28DD28C224B
:06039B00C2A58F80D2A76D
:0803A1007F027EEFDEFEDFFCAF
:0103A9002231
:0A03AA00C2A612039BC2A70203A122
:10030900CFCDCFCECCCE12004D7C007D0A12004D50
:04031900ED2430FFA0
:0A031D00D2A612039BC2A70203A19F
:10035B00AE07BE0104ED148006BE0209ED243F4436
:06036B0080FF1203AA222C
:100387007F381203AA7F0C1203AA7F061203AA7FE3
:04039700010203AAB2
:0A03B400AC0312035BAF0402031D4B
:0602E6008B258A26892702
:1002EC0012035BE4FDAB25AA26A9278D827583003A
:0C02FC0012000EFF600612031D0D80E9C9
:0103080022D2
:0C0290007F0AEA24FFFDE434FFFC7E003E
:08029C008E1E8F1F8C208D21A6
:1002A4007F017E00E4FBEBC39521E5206480F874B4
:0E02B4008098500AAC1EAD1F12003B0B80E874
:0102C2002219
:040327008A118B129A
:10032B0012035BAA13EAD39400400D120290AC1196
:08033B00AD121203091A80ED56
:010343002297
:1001E50012035BC3EA64809480400B7F2B12031DCE
:1001F5008A0D8B0E800E7F2D12031DC3E49BF50E19
:10020500E49AF50DAA0CEAD39400400D120290ACC5
:090215000DAD0E1203091A80ED73
:01021E0022BD
:04021F008A168B1799
:1002230012035BAA18EAD3940040297F10120292AA
:10023300AC16AD17CFCDCFCECCCE12004DEF540FB1
:10024300FEC3940AEE5004243080022437FF1203C5
:040253001D1A80D11F
:010257002284
:040258008A1B8B1C56
:10025C0012035BAA1DEAD394004028EA24FFFDE4B4
:10026C0034FFFC7F027E0012029CAC1BAD1CCFCD78
:10027C00CFCECCCE12004DEF54012430FF12031D13
:03028C001A80D203
:01028F00224C
:10012E00E4F52920B1137F1EFE12037130B1FD7F5D
:10013E001E7E0012037175290120B0147F1E7E00F1
:10014E0012037130B0FD7F1E7E00120371752902FD
:10015E0020B2147F1E7E0012037130B2FD7F1E7E10
:10016E000012037175290320B3147F1E7E00120343
:10017E007130B3FD7F1E7E00120371752904AF2905
:01018E00224E
:10037100EF1FAC0670011E4C600B007D027CC7DCD8
:05038100FEDDFC80EB35
:010386002254
:030000000200A259
:0C00A200787FE4F6D8FD7581290200E9A2
:10000E00BB010CE58229F582E5833AF583E02250A7
:10001E0006E92582F8E622BBFE06E92582F8E222F1
:0D002E00E58229F582E5833AF583E493220B
:10003B00EF8DF0A4A8F0CF8CF0A428CE8DF0A42ED9
:02004B00FE2293
:10004D00BC000BBE0029EF8DF084FFADF022E4CC97
:10005D00F875F008EF2FFFEE33FEEC33FCEE9DEC60
:10006D00984005FCEE9DFE0FD5F0E9E4CEFD22EDA6
:10007D00F8F5F0EE8420D21CFEADF075F008EF2FF0
:10008D00FFED33FD4007985006D5F0F222C398FDE1
:05009D000FD5F0EA227E
:1000AE000202C3E493A3F8E493A34003F68001F2A3
:1000BE0008DFF48029E493A3F85407240CC8C33353
:1000CE00C4540F4420C8834004F456800146F6DF22
:1000DE00E4800B0102040810204080900003E47EAF
:1000EE00019360BCA3FF543F30E509541FFEE49317
:1000FE00A360010ECF54C025E060A840B8E493A3DE
:10010E00FAE493A3F8E493A3C8C582C8CAC583CA08
:10011E00F0A3C8C582C8CAC583CADFE9DEE780BEC0
:0100070000F8
:00000001FF
