:0404E70002270000E8
:10046200E4F5111204471204A8120026BF10FAAFD5
:0A047200111204DF0511E4FF80EF12
:030023000202CF07
:1002CF00C0E0C0F0C083C082C0D075D000C000C0F5
:1002DF0001C002C003C004C005C006C007309905A5
:1002EF0075A00F801A309817AF997527008F287552
:1002FF000C02AB28AA277D017F01120363C298D09D
:10030F0007D006D005D004D003D002D001D000D042
:0A031F00D0D082D083D0F0D0E032BD
:10047C00EF1FAC0670011E4C600B007D027CC7DCCC
:05048C00FEDDFC80EB29
:010491002248
:1004470075985043878053890F438920758BF475BE
:0B0457008DF4D28EC2ABD2AFD2AC222B
:0804DF008F993099FDC29922AA
:10002600E4F5127590FFC2932097137F1EFE12040B
:100036007C3097FD7F1E7E0012047C75120120968F
:10004600147F1E7E0012047C3096FD7F1E7E0012F9
:10005600047C7512052095147F1E7E0012047C30E8
:1000660095FD7F1E7E0012047C7512092094147F74
:100076001E7E0012047C3094FD7F1E7E0012047CDE
:1000860075120D7590FFC2922097147F1E7E001286
:10009600047C3097FD7F1E7E0012047C75120220C0
:1000A60096147F1E7E0012047C3096FD7F1E7E0015
:1000B60012047C7512062095147F1E7E0012047CA5
:1000C6003095FD7F1E7E0012047C75120A20941462
:1000D6007F1E7E0012047C3094FD7F1E7E0012047B
:1000E6007C75120E7590FFC2912097147F1E7E00BC
:1000F60012047C3097FD7F1E7E0012047C7512036D
:100106002096147F1E7E0012047C3096FD7F1E7E94
:100116000012047C7512072095147F1E7E001204BF
:100126007C3095FD7F1E7E0012047C75120B209498
:10013600147F1E7E0012047C3094FD7F1E7E00120A
:10014600047C75120F7590FFC2902097147F1E7E57
:100156000012047C3097FD7F1E7E0012047C75120F
:10016600042096147F1E7E0012047C3096FD7F1EAE
:100176007E0012047C7512082095147F1E7E0012E4
:10018600047C3095FD7F1E7E0012047C75120C20C7
:1001960094147F1E7E0012047C3094FD7F1E7E0028
:0801A60012047C751210AF1267
:0101AE00222E
:0604BC00C2A58F80D2A74B
:0804C2007F027EEFDEFEDFFC8D
:0104CA00220F
:0A04CB00C2A61204BCC2A70204C2BC
:10000300CFCDCFCECCCE1201EE7C007D0A1201EE15
:04001300ED2430FFA9
:0A001700D2A61204BCC2A70204C264
:10049200AE07BE0104ED148006BE0209ED243F44FE
:0604A20080FF1204CB22D2
:1004A8007F381204CB7F0C1204CB7F061204CB7F5B
:0404B800010204CB6E
:0A04D500AC03120492AF04020017FA
:060407008B248A258926E2
:10040D00120492E4FDAB24AA25A9268D82758300E2
:0C041D001201AFFF60061200170D80E90D
:0104290022B0
:0C03D4007F0AEA24FFFDE434FFFC7E00F9
:0803E0008E0D8F0E8C0F8D10A5
:1003E8007F017E00E4FBEBC39510E50F6480F87491
:0E03F8008098500AAC0DAD0E1201DC0B80E8AF
:0104060022D3
:04042A008A1C8B1D80
:10042E00120492AA1EEAD39400400D1203D4AC1CFF
:08043E00AD1D1200031A80ED50
:010446002293
:10032900120492C3EA64809480400B7F2B12001759
:100339008A188B19800E7F2D120017C3E49BF519BB
:10034900E49AF518AA17EAD39400400D1203D4AC25
:0903590018AD191200031A80ED21
:010362002278
:040363008A0A8B0B6C
:10036700120492AA0CEAD3940040297F101203D6F4
:10037700AC0AAD0BCFCDCFCECCCE1201EEEF540FE2
:10038700FEC3940AEE5004243080022437FF120083
:04039700171A80D1E0
:01039B00223F
:04039C008A218B2205
:1003A000120492AA23EAD394004028EA24FFFDE431
:1003B00034FFFC7F027E001203E0AC21AD22CFCDE2
:1003C000CFCECCCE1201EEEF54012430FF12001735
:0303D0001A80D2BE
:0103D3002207
:03000000020243B6
:0C024300787FE4F6D8FD75812802028A5D
:1001AF00BB010CE58229F582E5833AF583E0225005
:1001BF0006E92582F8E622BBFE06E92582F8E2224F
:0D01CF00E58229F582E5833AF583E4932269
:1001DC00EF8DF0A4A8F0CF8CF0A428CE8DF0A42E37
:0201EC00FE22F1
:1001EE00BC000BBE0029EF8DF084FFADF022E4CCF5
:1001FE00F875F008EF2FFFEE33FEEC33FCEE9DECBE
:10020E00984005FCEE9DFE0FD5F0E9E4CEFD22ED03
:10021E00F8F5F0EE8420D21CFEADF075F008EF2F4D
:10022E00FFED33FD4007985006D5F0F222C398FD3E
:05023E000FD5F0EA22DB
:10024F00020462E493A3F8E493A34003F68001F25F
:10025F0008DFF48029E493A3F85407240CC8C333B0
:10026F00C4540F4420C8834004F456800146F6DF7F
:10027F00E4800B01020408102040809004E7E47E24
:10028F00019360BCA3FF543F30E509541FFEE49374
:10029F00A360010ECF54C025E060A840B8E493A33B
:1002AF00FAE493A3F8E493A3C8C582C8CAC583CA66
:1002BF00F0A3C8C582C8CAC583CADFE9DEE780BE1E
:0104EB000010
:00000001FF
