:10053600CAE4C8EBB5C4CABEDDB7C7B7A8210A006E
:1004A3007D017F0112035F12051C7D027F0212038F
:1004B3005F12051C7D037F0312035F12051C7D047D
:1004C3007F0412035F12051C7D057F0512035F1273
:1004D300051C7D067F0612035F12051C7D077F073F
:1004E30012035F12051C7D087F0812035F12051CAF
:0204F30080AED9
:10035F008D08BF0104C2A4801ABF0204C2A4801E6C
:10036F00BF0304C2A48022BF0404C2A48026BF0519
:10037F0008D2A4C2A3C2A2802ABF0608D2A4C2A3D5
:10038F00D2A2801FBF0708D2A4D2A3C2A28014BFDB
:10039F000808D2A4D2A3D2A280097BFF7A057936AE
:1003AF00120065E508700475803F22E508B401046A
:1003BF0075800622E508B4020475805B22E508B457
:1003CF00030475804F22E508B4040475806622E5A6
:1003DF0008B4050475806D22E508B4060475807DA8
:1003EF0022E508B4070475800722E508B4080475F0
:1003FF00807F22E508B4090475806F227BFF7A05A0
:06040F007936120065229F
:04051C007FF47E01E9
:10052000EF1FAC0670011E4C600B007D027CC7DC27
:05053000FEDDFC80EB84
:0105350022A3
:03000000020546B0
:0C054600787FE4F6D8FD7581210204A343
:10000300E518240CF8E60518227809300702780C65
:10001300E475F00112046D0204152000EB7F2ED26B
:10002300008018EF540F2490D43440D4FF30040BD5
:10003300EF24BFB41A0050032461FFE519600215D1
:1000430019051CE51C7002051B30070D7809E475C2
:10005300F00112046DEF02045B0204F57403D2078E
:100063008003E4C207F5188B098A0A890BE4F519A2
:10007300F51BF51CE51960077F2012003E80F5751E
:100083001AFFC201C200C202C203C205C206C208ED
:1000930012000CFF700D3007057F0012004FAF1CDC
:1000A300AE1B22B4255FC2D5C20412000CFF24D0BC
:1000B300B40A00501A75F00A781930D50508B6FF4E
:1000C3000106C6A426F620D5047002D20380D924E3
:1000D300CFB41A00EF5004C2E5D20402024FD2019A
:1000E30080C6D20080C0D20280BCD2D580BAD205ED
:1000F30080B47F2012003E2002077401B51900402E
:10010300F1120003FF12003E020077D208D20680EC
:1001130095120003FB120003FA120003F94A4B7015
:100123000679207A037BFF20022EE519602A7E00E0
:100133008E8275830012042E60060EEE651A70F02F
:10014300C2D5EBC0E0EAC0E0E9C0E0EE120296D00F
:10015300E0F9D0E0FAD0E0FB120415FF60AAEBC08F
:10016300E0EAC0E0E9C0E012003ED0E02401F9D0AB
:10017300E03400FAD0E0FBE51A0460DCD51AD9803C
:10018300877BFF7A027992D202809C791080027970
:1001930008C206C2088008D2D5790A8004790AC247
:1001A300D5E51A047002F51AE4FAFDFEFF12000306
:1001B300FC7B08200113120003FD7B1030000A12A0
:1001C3000003FE120003FF7B20EC3382D592D5504F
:1001D30013C3E43000069FFFE49EFEE42001039D69
:1001E300FDE49CFCE4CBF8C201EC700CCFCECDCC8B
:1001F300E824F8F870F38017C3EF33FFEE33FEED16
:1002030033FDEC33FCEB33FB994002FB0FD8E9EBF6
:10021300300105F8D0E0C448B201C0E00AEC4D4E0D
:100223004F78207B0070C2EAB51A0040BCC0E012D0
:100233000298D0F0D0E0200104C4C0E0C4B201C0F1
:10024300F0120027D0F0D5F0EB02007712047D0105
:100253001453018E5800E54C00E14201924F019A7C
:0F02630044019A4900FA4301A0550184460184E1
:100272004501844703405000E92D00ED2E01102B6B
:1002820000F123010E2003292A00A94800000108D9
:100292003F3F3F00790AA2D5200314300509B91067
:1002A200020404B9080104A2D52006025001042068
:1002B20002689202B519005034C0E07F2030031961
:1002C2007F30A20272067205500F1202EFC202C202
:1002D20006C205C2087F30800F300503E9C0E01274
:1002E200003E300503D0E0F9D0E0B519CC30051757
:1002F2007F30B9100C12003E7F583004077F78809F
:1003020003B9080312003E3002057F2D02003E7F32
:10031200202008F87F2B2006F322920280CF286E3D
:10032200756C6C2900D2011200033001F8C2017809
:100332001930D50108F60200A92D50434958120080
:10034200032403B405004001E490033B9312002F01
:0D035200743A12002FD20375190402018EB7
:10041500BB010689828A83E0225002E722BBFE02E5
:09042500E32289828A83E4932218
:10042E00BB010CE58229F582E5833AF583E0225083
:10043E0006E92582F8E622BBFE06E92582F8E222CD
:0D044E00E58229F582E5833AF583E49322E7
:10045B00BB010689828A83F0225002F722BBFE0180
:02046B00F3227A
:10046D00FAE6FB0808E6F925F0F618E6CA3AF62290
:10047D00D083D082F8E4937012740193700DA3A30E
:10048D0093F8740193F5828883E473740293686022
:06049D00EFA3A3A380DF22
:1004F500EFB40A07740D120500740A309811A89913
:10050500B8130CC2983098FDA899C298B811F63066
:0705150099FDC299F599223E
:00000001FF
