:1005180020202D20202D202020207765656B3A0093
:0905280020203A20203A20200096
:10014E0012055D12059E7BFF7A0579187D017F01F0
:10015E001204BA7BFF7A0579287D017F021204BA58
:10016E001200031201DFE518FB7A00750C027D0107
:10017E007F011204FBE519FB7A00750C027D047FEA
:10018E00011204FBE51AFB7A00750C027D077F0154
:10019E001204FBE51EFB7A00750C017D107F011227
:1001AE0004FBE51BFB7A00750C027D017F02120435
:1001BE00FBE51CFB7A00750C027D047F021204FB2A
:1001CE00E51DFB7A00750C027D077F021204FB8091
:0101DE00928E
:06057100C2A58F80D2A795
:080577007F027EEFDEFEDFFCD7
:01057F002259
:0A058000C2A6120571C2A70205779A
:1004DD00CFCDCFCECCCE1200F97C007D0A1200F923
:0404ED00ED2430FFCB
:0A04F100D2A6120571C2A70205771A
:10053100AE07BE0104ED148006BE0209ED243F445E
:0605410080FF120580227C
:10055D007F381205807F0C1205807F061205807F83
:04056D000102058002
:0A058A00AC03120531AF040204F1C6
:0604BA008B088A09890A83
:1004C000120531E4FDAB08AA09A90A8D82758300E3
:0C04D0001200BAFF60061204F10D80E972
:0104DC0022FD
:0C0487007F0AEA24FFFDE434FFFC7E0045
:080493008E0D8F0E8C0F8D10F1
:10049B007F017E00E4FBEBC39510E50F6480F874DD
:0E04AB008098500AAC0DAD0E1200E70B80E8F1
:0104B9002220
:0404FB008A0A8B0BD3
:1004FF00120531AA0CEAD39400400D120487AC0AFE
:08050F00AD0B1204DD1A80EDB2
:0105170022C1
:1003DC00120531C3EA64809480400B7F2B1204F128
:1003EC008A168B17800E7F2D1204F1C3E49BF51730
:1003FC00E49AF516AA15EAD39400400D120487ACC2
:09040C0016AD171204DD1A80ED93
:0104150022C4
:040416008A218B228A
:10041A00120531AA23EAD3940040297F10120489D5
:10042A00AC21AD22CFCDCFCECCCE1200F9EF540FF6
:10043A00FEC3940AEE5004243080022437FF1204CB
:04044A00F11A80D152
:01044E00228B
:04044F008A268B2747
:10045300120531AA28EAD394004028EA24FFFDE4D8
:1004630034FFFC7F027E00120493AC26AD27CFCD70
:10047300CFCECCCE1200F9EF54012430FF1204F199
:030483001A80D20A
:010486002253
:090594000718170513173B370582
:05059E00C2B5C2B62247
:0303770025F0FD71
:04037A008F08A9053A
:10037E00D2B5E4FBFAAF0374017E00A8070880052E
:10038E00C333CE33CED8F9FFEF550824FF92B4D243
:10039E00B6C2B60BBB00010AEB64084A70D7E4FB89
:1003AE00FAAF0374017E00A807088005C333CE336D
:1003BE00CED8F9FFE9FDEF5D24FF92B4D2B6C2B6F6
:0D03CE000BBB00010AEB64084A70D6C2B5F3
:0103DB0022FF
:0202F800A90754
:1002FA00E4F508430101D2B5FBFAAF0374017E00AD
:10030A00A807088005C333CE33CED8F9FFE9FDEF3D
:10031A005D24FF92B4D2B6C3EB9407EA648094805A
:10032A005002C2B60BBB00010AEB64084A70CBE468
:10033A00FFFEC2B6C3EF9407EE648094805002D2E7
:10034A00B620B405E4F5098003750901AD07E5098E
:10035A00A805088002C333D8FC42080FBF00010E6B
:0C036A00EF64084E70CCC2B5C2B4AF08FE
:010376002264
:10000300E4FD7F8E12037AE51875F00A84C454F078
:10001300FFE51875F00A84EF7F8C120377E51975F5
:10002300F00A84C454F0FFE51975F00A84EF7F8861
:10003300120377E51A75F00A84C454F0FFE51A75C4
:10004300F00A84EF25F0FD7F8612037AE51B75F035
:100053000A84C454F0FFE51B75F00A84EF25F0FD14
:100063007F8412037AE51C75F00A84C454F0FFE51B
:100073001C75F00A84EF25F0FD7F8212037AE51DDB
:1000830075F00A84C454F0FFE51D75F00A84EF256A
:10009300F0FD7F8012037AE51E75F00A84C454F0E4
:1000A300FFE51E75F00A84EF25F0FD7F8A12037ABF
:0700B3007D807F8E02037ABD
:1001DF007F8C1202F8EFC4540F75F00AA4FEEF548F
:1001EF000F2EF5187F881202F8EFC4540F75F00A1E
:1001FF00A4FEEF540F2EF5197F861202F8EFC454A8
:10020F000F75F00AA4FEEF540F2EF51A7F84120219
:10021F00F8EFC4540F75F00AA4FEEF540F2EF51B20
:10022F007F821202F8EFC4540F75F00AA4FEEF5448
:10023F000F2EF51C7F801202F8EFC4540F75F00AD1
:10024F00A4FEEF540F2EF51D7F8A1202F8EFC4544F
:0C025F000F75F00AA4FEEF540F2EF51EE0
:01026B002270
:10054700EF1FAC0670011E4C600B007D027CC7DC00
:05055700FEDDFC80EB5D
:01055C00227C
:0300000002026C8D
:0C026C00787FE4F6D8FD7581280202B30B
:1000BA00BB010CE58229F582E5833AF583E02250FB
:1000CA0006E92582F8E622BBFE06E92582F8E22245
:0D00DA00E58229F582E5833AF583E493225F
:1000E700EF8DF0A4A8F0CF8CF0A428CE8DF0A42E2D
:0200F700FE22E7
:1000F900BC000BBE0029EF8DF084FFADF022E4CCEB
:10010900F875F008EF2FFFEE33FEEC33FCEE9DECB3
:10011900984005FCEE9DFE0FD5F0E9E4CEFD22EDF9
:10012900F8F5F0EE8420D21CFEADF075F008EF2F43
:10013900FFED33FD4007985006D5F0F222C398FD34
:050149000FD5F0EA22D1
:1002780002014EE493A3F8E493A34003F68001F24D
:1002880008DFF48029E493A3F85407240CC8C33387
:10029800C4540F4420C8834004F456800146F6DF56
:1002A800E4800B0102040810204080900594E47E4D
:1002B800019360BCA3FF543F30E509541FFEE4934B
:1002C800A360010ECF54C025E060A840B8E493A312
:1002D800FAE493A3F8E493A3C8C582C8CAC583CA3D
:1002E800F0A3C8C582C8CAC583CADFE9DEE780BEF5
:01059D00005D
:00000001FF
